{
  "address": "0x43aC94Ae64F2758Ef2D71624DC764324a0766C35",
  "abi": [
    {
      "inputs": [
        {
          "internalType": "uint256",
          "name": "_x",
          "type": "uint256"
        }
      ],
      "name": "setX",
      "outputs": [
        {
          "internalType": "uint256",
          "name": "",
          "type": "uint256"
        }
      ],
      "stateMutability": "nonpayable",
      "type": "function"
    },
    {
      "inputs": [
        {
          "internalType": "uint256",
          "name": "_x",
          "type": "uint256"
        }
      ],
      "name": "setXAndSendEther",
      "outputs": [
        {
          "internalType": "uint256",
          "name": "",
          "type": "uint256"
        },
        {
          "internalType": "uint256",
          "name": "",
          "type": "uint256"
        }
      ],
      "stateMutability": "payable",
      "type": "function"
    },
    {
      "inputs": [],
      "name": "value",
      "outputs": [
        {
          "internalType": "uint256",
          "name": "",
          "type": "uint256"
        }
      ],
      "stateMutability": "view",
      "type": "function"
    },
    {
      "inputs": [],
      "name": "x",
      "outputs": [
        {
          "internalType": "uint256",
          "name": "",
          "type": "uint256"
        }
      ],
      "stateMutability": "view",
      "type": "function"
    }
  ],
  "transactionHash": "0x61bdb07dd726668a42ca51c71e5078716fcb0665e060fb96ef61f300eed358af",
  "args": [],
  "numDeployments": 1,
  "solcInputHash": "3ded31a80b4e2198a344ca1bd9f69073",
  "bytecode": "0x6080604052348015600f57600080fd5b506101158061001f6000396000f3fe608060405260043610603a5760003560e01c80630c55699c14603f5780633fa4f2451460665780634018d9aa14607a5780638f52503f146099575b600080fd5b348015604a57600080fd5b50605360005481565b6040519081526020015b60405180910390f35b348015607157600080fd5b50605360015481565b348015608557600080fd5b506053609136600460c7565b600081905590565b60b360a436600460c7565b60008190553460018190559091565b60408051928352602083019190915201605d565b60006020828403121560d857600080fd5b503591905056fea2646970667358221220d98783da4fb79b8e0c7b64b3cebfaa27bd36a9c84aa366f169baa6c27f06c31b64736f6c63430008190033",
  "devdoc": {
    "kind": "dev",
    "methods": {},
    "version": 1
  },
  "userdoc": {
    "kind": "user",
    "methods": {},
    "version": 1
  },
  "storageLayout": {
    "storage": [
      {
        "astId": 4,
        "contract": "contracts/YourContract.sol:Callee",
        "label": "x",
        "offset": 0,
        "slot": "0",
        "type": "t_uint256"
      },
      {
        "astId": 6,
        "contract": "contracts/YourContract.sol:Callee",
        "label": "value",
        "offset": 0,
        "slot": "1",
        "type": "t_uint256"
      }
    ],
    "types": {
      "t_uint256": {
        "encoding": "inplace",
        "label": "uint256",
        "numberOfBytes": "32"
      }
    }
  }
}