{
  "address": "0x71F3994712e1D5AAddD6fA9d261a5fADa87caa6f",
  "abi": [
    {
      "inputs": [
        {
          "internalType": "contract Callee",
          "name": "_callee",
          "type": "address"
        },
        {
          "internalType": "uint256",
          "name": "_x",
          "type": "uint256"
        }
      ],
      "name": "setX",
      "outputs": [],
      "stateMutability": "nonpayable",
      "type": "function"
    },
    {
      "inputs": [
        {
          "internalType": "contract Callee",
          "name": "_callee",
          "type": "address"
        },
        {
          "internalType": "uint256",
          "name": "_x",
          "type": "uint256"
        }
      ],
      "name": "setXAndSendEther",
      "outputs": [],
      "stateMutability": "payable",
      "type": "function"
    },
    {
      "inputs": [
        {
          "internalType": "address",
          "name": "_addr",
          "type": "address"
        },
        {
          "internalType": "uint256",
          "name": "_x",
          "type": "uint256"
        }
      ],
      "name": "setXFromAddress",
      "outputs": [],
      "stateMutability": "nonpayable",
      "type": "function"
    }
  ],
  "transactionHash": "0x93629cdab7800aa1565a70f7a74731e242471625b301b3c98f29cc44aaedb9d5",
  "args": [],
  "numDeployments": 1,
  "solcInputHash": "3ded31a80b4e2198a344ca1bd9f69073",
  "bytecode": "0x6080604052348015600f57600080fd5b506102658061001f6000396000f3fe6080604052600436106100345760003560e01c806327a9f474146100395780634a2ad99f1461004e578063cb5870391461006e575b600080fd5b61004c6100473660046101c6565b61008e565b005b34801561005a57600080fd5b5061004c6100693660046101c6565b61010a565b34801561007a57600080fd5b5061004c6100893660046101c6565b61017f565b600080836001600160a01b0316638f52503f34856040518363ffffffff1660e01b81526004016100c091815260200190565b604080518083038185885af11580156100dd573d6000803e3d6000fd5b50505050506040513d601f19601f8201168201806040525081019061010291906101f2565b505050505050565b60405163200c6cd560e11b8152600481018290526000906001600160a01b03841690634018d9aa906024015b6020604051808303816000875af1158015610155573d6000803e3d6000fd5b505050506040513d601f19601f820116820180604052508101906101799190610216565b50505050565b60405163200c6cd560e11b81526004810182905282906001600160a01b03821690634018d9aa90602401610136565b6001600160a01b03811681146101c357600080fd5b50565b600080604083850312156101d957600080fd5b82356101e4816101ae565b946020939093013593505050565b6000806040838503121561020557600080fd5b505080516020909101519092909150565b60006020828403121561022857600080fd5b505191905056fea26469706673582212202db0d54b7775d1cf9f1835e4b7658b40949fcb17e11dfb93ea932c7177de29c264736f6c63430008190033",
  "devdoc": {
    "author": "BuidlGuidl",
    "kind": "dev",
    "methods": {},
    "version": 1
  },
  "userdoc": {
    "kind": "user",
    "methods": {},
    "notice": "A smart contract that allows changing a state variable of the contract and tracking the changes It also allows the owner to withdraw the Ether in the contract",
    "version": 1
  },
  "storageLayout": {
    "storage": [],
    "types": null
  }
}